:100000000C94BF000C94E7000C94E7000C94E700FC
:100010000C94E7000C94E7000C94E7000C949A28E9
:100020000C94E7000C94E7000C94E7000C948D1DF1
:100030000C94E7000C94E7000C94E7000C94E700A4
:100040000C94D0220C94E7000C94EF250C944126DC
:100050000C94E7000C94E7000C94E7000C94E70084
:100060000C94EC1F0C94E700084AD73B3BCE016E82
:1000700084BCBFFDC12F3D6C74319ABD56833DDAFF
:100080003D00C77F11BED9E4BB4C3E916BAAAABE0E
:10009000000000803F07634236B79BD8A71A396833
:1000A0005618AEBAAB558C1D3CB7CC5763BD6DED41
:1000B000FD753EF6177231BF000000803F0800005A
:1000C00000BE922449123EABAAAA2ABECDCCCC4C8B
:1000D0003E00000080BEABAAAAAA3E00000000BFFE
:1000E000000000803F0000000000084178D3BB43BF
:1000F00087D1133D190E3CC3BD4282AD2B3E68EC47
:100100008276BED98FE1A93E4C80EFFFBE01C4FFCD
:100110007F3F000000000000000000240027002AAC
:100120000000000000250028002B00000000002334
:10013000002600290004040404040404040202024A
:100140000202020303030303030102040810204018
:1001500080010204081020010204081020000000A1
:100160000700020100000304060000000000000078
:1001700000028D01F90C851EB0278601F20C1124B6
:100180001FBECFEFD8E0DEBFCDBF11E0A0E0B1E0F1
:10019000E6E2F4E602C005900D92A038B107D9F767
:1001A00015E0A0E8B1E001C01D92A63AB107E1F761
:1001B00011E0CAE7D1E004C02297FE010E9402329A
:1001C000C237D107C9F70E9407280C9406320C9455
:1001D0000000FB01DC0102C001900D924150504033
:1001E000D8F70895FB01DC0101900D920020E1F7A2
:1001F000089530916202332321F0FC01E956FD4F4E
:1002000003C0FC01ED59FD4FE081E0934702FC0182
:100210003196332319F0E956FD4F02C0ED59FD4FD9
:10022000208120934802FC013296332319F0E956CD
:10023000FD4F02C0ED59FD4F208120934902FC0182
:100240003396332319F0E956FD4F02C0ED59FD4FA7
:10025000808180934A022091470230914802409168
:100260004902582FB901CA0108958130910509F05A
:100270003FC06F5F7F4F09F048C080E891E00E9467
:10028000491C83E891E00E943A0C87E891E00E94C3
:100290009B1989E991E00E94F91686EA91E00E9493
:1002A000A61B8AEA91E00E94010C84EB91E00E9477
:1002B000651588EB91E00E9459158DEB91E00E9445
:1002C000B30E8DEF91E00E94951782E292E00E94BA
:1002D00095178DE492E00E94990E84E592E00E94C9
:1002E000990E8BE592E060E071E00E94CF2B0895BB
:1002F000892B59F46F5F7F4F41F48BE592E00E94A8
:10030000092C89E991E00E949C16089580E090E014
:100310006FEF7FEF0E943501089581E090E06FEF6D
:100320007FEF0E9435010895CF92DF92EF92FF9206
:100330000F931F93DF93CF93CDB7DEB7CA54D0404E
:100340000FB6F894DEBF0FBECDBF2091620222230C
:1003500019F0C0909D0202C0C0906902EC2CFF24ED
:100360008E31910509F4B4C28F319105D4F48930EE
:10037000910509F44FC28A30910544F48330910508
:1003800009F460C2089709F031C3F0C18B309105C0
:1003900009F41BC28B309105FCF0449709F026C389
:1003A0006BC28232910509F4B6C28332910544F4DE
:1003B0008032910509F49DC2819709F017C3EDC2FF
:1003C0008932910509F46FC18233910509F4FCC2A9
:1003D000889709F00BC321C0222319F080919E0257
:1003E00002C080916A0280934B02222319F080910F
:1003F0009F0202C080916B0280934C0200914B02DD
:1004000010914C0283E891E06C2D0E94901583E8D6
:1004100091E0B8010E94040CE9C2222319F08091F6
:100420009E0202C080916A0280934B02222319F03F
:1004300080919F0202C080916B0280934C020091D8
:100440004B0210914C02222319F08091A00202C0AD
:1004500080916C0280934B02222319F08091A102BB
:1004600002C080916D0280934C02C0904B02D090EC
:100470004C0281E0E816F10409F083C0CE01019638
:1004800061E00E94A4178B819C81AD81BE81809325
:10049000FF0190930002A0930102B09302028F81AA
:1004A00080930302888580930402898580930502E6
:1004B0008A859B85AC85BD85809306029093070253
:1004C000A0930802B09309028E859F85A889B989F7
:1004D00080930A0290930B02A0930C02B0930D023A
:1004E0008A899B89AC89BD8980930E0290930F0203
:1004F000A0931002B09311028E899F89A88DB98DA7
:100500008093120290931302A0931402B0931502E9
:100510008A8D9B8DAC8DBD8D8093160290931702B2
:10052000A0931802B09319028E8D9F8DA8A1B9A136
:1005300080931A0290931B02A0931C02B0931D0299
:100540008AA19BA1ACA1BDA180931E0290931F0222
:10055000A0932002B0932102B801882777FD8095EF
:10056000982F0E94562EAB01BC018DEF91E00E94A6
:100570007117A601662757FD6095762F8DEF91E0E4
:100580008FC082E0E816F10409F030C2CE018696F1
:1005900062E00E94A41788A599A5AAA5BBA580938F
:1005A000240290932502A0932602B09327028CA5E3
:1005B000809328028DA5809329028EA580932A021C
:1005C0008FA598A9A9A9BAA980932B0290932C0270
:1005D000A0932D02B0932E028BA99CA9ADA9BEA910
:1005E00080932F0290933002A0933102B093320295
:1005F0008FA998ADA9ADBAAD809333029093340220
:10060000A0933502B09336028BAD9CADADADBEADBF
:100610008093370290933802A0933902B0933A0244
:10062000FE01FF9680819181A281B38180933B027C
:1006300090933C02A0933D02B0933E02FE01ED5B1D
:10064000FF4F80819181A281B38180933F0290937B
:100650004002A0934102B0934202FE01E95BFF4FCA
:1006600080819181A281B38180934302909344025F
:10067000A0934502B0934602B801882777FD809584
:10068000982F0E94562EAB01BC0182E292E00E949C
:100690007117A601662757FD6095762F82E292E0DA
:1006A0000E947917A3C1222319F080919E0202C0F3
:1006B00080916A0280934B02222319F080919F025D
:1006C00002C080916B0280934C0200914B0210910A
:1006D0004C02222319F08091A00202C080916C028A
:1006E00080934B02222319F08091A10202C08091D5
:1006F0006D0280934C0220914B0230914C0281E0BC
:10070000E816F104A9F4B901882777FD8095982FA0
:100710000E94562E6B017C01B801882777FD8095D9
:10072000982F0E94562E8B019C018DE492E019C0F7
:1007300082E0E816F10409F059C1B901882777FD74
:100740008095982F0E94562E6B017C01B801882756
:1007500077FD8095982F0E94562E8B019C0184E591
:1007600092E0B701A6010E94760D40C1222349F014
:1007700010919E02E0909F02F090A0020091A102D1
:1007800008C010916A02E0906B02F0906C02009138
:100790006D0289E991E06C2D0E94C316112349F086
:1007A000115089E991E0612F4E2D2F2D0E941616D0
:1007B00007C089E991E06E2D4F2D202F0E94411630
:1007C00089E991E00E946D1611C1222319F08091F0
:1007D0009E0202C080916A02F701EE0FFF1F813076
:1007E00021F4E85EFE4F308103C0E85EFE4F3181A8
:1007F000222319F060919F0202C060916B02062FC4
:1008000010E0053B110508F0F1C080E891E0632F8E
:1008100070E0D2C08AEA91E00E948A1590E08E15BD
:100820009F0529F08AEA91E06C2D0E948F0A87E0EB
:1008300090E00E94F900AB01BC018AEA91E00E94BD
:10084000770BD4C084EB91E00E948A1590E08E155E
:100850009F0529F084EB91E06C2D0E94901580910A
:100860006202882319F080919E0202C080916A0280
:1008700060E08823F9F01DC084EB91E00E948A15A6
:1008800090E08E159F0529F084EB91E06C2D0E947D
:10089000901580916202882319F080919E0202C017
:1008A00080916A0290E0823091054CF460E0892BDF
:1008B00009F061E084EB91E00E94DB1597C060E0F5
:1008C000029709F061E084EB91E00E94C8158EC0A8
:1008D0008C2D61E00E946C2480916202882319F0C3
:1008E00060919E0202C060916A028C2D0E94AB242E
:1008F0007DC08C2D61E00E946C248091620288236F
:1009000019F060919E0202C060916A028C2D70E025
:100910000E940C246BC08C2D61E00E946C2490918D
:100920006202992319F080919E0202C080916A02AE
:1009300080934B02992319F080919F0202C080910D
:100940006B0280934C0260914B0270914C02992390
:1009500019F08091A00202C080916C0280934B023A
:10096000992319F08091A10202C080916D028093B9
:100970004C0280914B0290914C02181619064CF4CF
:100980009C01442737FD4095542F8C2D0E94F6285A
:100990002DC08C2D0E94832829C0222319F060913C
:1009A0009E0202C060916A02062F10E0053B11050D
:1009B000E8F480E891E0B7010E94861D80E891E0AC
:1009C000B8010E949F1C12C00E9418230E94542E3E
:1009D00020E030E04AE754E40E94BB2D6093D1024E
:1009E0007093D2028093D3029093D402C65BDF4F00
:1009F0000FB6F894DEBF0FBECDBFCF91DF911F9130
:100A00000F91FF90EF90DF90CF90089510926102C8
:100A10008BE695E00E940327181619065CF481E026
:100A200080936102109262028BE695E00E94372764
:100A30008093CF020895682F8BE695E00E9470277F
:100A40000895EF92FF920F931F937B018C0182E038
:100A50000E941B05E0924702F0924802009349026F
:100A600010934A02809147020E941B058091480220
:100A70000E941B05809149020E941B0580914A0239
:100A80000E941B051F910F91FF90EF900895EF9228
:100A9000FF920F931F93CF93DF937C01FC0104819E
:100AA000158184E00E941B05802F0E941B05C0E079
:100AB000D0E007C0C701BE010E94552B0E941B0554
:100AC0002196C017D107B4F3DF91CF911F910F91F9
:100AD000FF90EF900895CF92DF92EF92FF920F93E5
:100AE0001F93DF93CF9300D000D000D0CDB7DEB7F7
:100AF00020916202222319F0F0909D0202C0F09032
:100B000069020F2D10E08730910509F46EC088301E
:100B10009105D4F4853091057CF4833091050CF077
:100B200064C08130910579F1823091050CF03DC0AF
:100B3000892B09F478C1AEC18530910509F46BC0E9
:100B4000069709F0A7C14AC18531910509F4FDC096
:100B50008631910564F48031910509F493C08131A7
:100B6000910509F4C2C00F9709F094C19EC08F315E
:100B7000910509F46FC18233910509F481C14E9743
:100B800009F088C15FC186EA91E00E948A1590E071
:100B90008017910729F086EA91E06F2D0E94901549
:100BA00086EA91E00E94A11B73C1222319F0E09014
:100BB0009E0202C0E0906A0287E891E00E948A15D6
:100BC00090E08017910731F487E891E00E948D153D
:100BD0008E1531F087E891E06F2D4E2D0E9475192A
:100BE00087E891E00E94E31A53C184EB91E00E94F0
:100BF0008A1590E08017910709F43FC084EB91E0DB
:100C00006F2D0E94901584EB91E00E94B61560E074
:100C10000E946C2432C0222319F080919E0202C0EF
:100C200080916A02C82EDD2484EB91E00E948A152F
:100C300090E08017910799F084EB91E06F2D0E946E
:100C4000901584EB91E00E94B31560E00E946C2443
:100C500084EB91E00E94B61560E00E946C2481E074
:100C6000C816D10429F484EB91E00E94C315FFC09B
:100C7000E2E0CE16D10409F00DC184EB91E00E94B0
:100C8000BE15F5C088EB91E00E948A1590E08017B0
:100C9000910729F088EB91E06F2D0E9490156091EB
:100CA000CE0270E080E090E01DC084EB91E00E94F5
:100CB0008A1590E08017910761F084EB91E06F2D29
:100CC0000E94901584EB91E00E94B61560E00E94AE
:100CD0006C2484EB91E00E94EE1590E0A0E0B0E07F
:100CE000BC01CD010E94542ED3C084EB91E00E9440
:100CF0008A1590E08017910799F084EB91E06F2DB1
:100D00000E94901584EB91E00E94B31560E00E9470
:100D10006C2484EB91E00E94B61560E00E946C2484
:100D200084EB91E00E940216E82E84EB91E00E9491
:100D3000EE15FF24EE0CFF1CE80EF11C0027F7FC5B
:100D40000095102FC801B70198C0222319F0E09038
:100D50009E0202C0E0906A02CE2CDD2484EB91E07A
:100D60000E948A1590E08017910741F484EB91E08E
:100D70000E948D1590E08C159D0531F084EB91E07B
:100D80006F2D4E2D0E94A015F1E0CF16D10461F415
:100D900084EB91E00E94B31562E00E946C2484EB26
:100DA00091E00E9402160BC084EB91E00E94B61500
:100DB00062E00E946C2484EB91E00E94EE1590E0CA
:100DC000A0E0B0E0BC01CD010E94542EE62F2E2FF2
:100DD000372F482F592FB901CA015AC0222319F0C1
:100DE00080919E0202C080916A02082F10E08DEB74
:100DF00091E00E944E100130110529F48DEB91E035
:100E00000E94250F45C00230110529F48DEB91E0B9
:100E10000E94E10E3DC003301105E1F58DEB91E03C
:100E20000E94B40E35C08E010F5F1F4FC8016BE5E5
:100E300072E00E94FF2BC8010E944705C8010E9472
:100E4000092C28C08F2D60E00E946C248F2D0E94F9
:100E5000FF240DC0000F111F085F1E4FF801108105
:100E6000812F60E00E946C24812F0E94EA23AA2730
:100E700097FDA095BA2FBC01CD010E94562E08C047
:100E80006091D5027091D6028091D7029091D802DC
:100E90000E94210526960FB6F894DEBF0FBECDBF87
:100EA000CF91DF911F910F91FF90EF90DF90CF9046
:100EB00008958FEF0E941B0585E50E941B0508958C
:100EC0008BE695E00E94422808958FEF0E941B0553
:100ED00085E50E941B050E94600708950F931F93EC
:100EE0001092CD0280916202882339F000919A021B
:100EF00080919B0210919C0206C000916602809135
:100F00006702109168028230C1F0833020F4813092
:100F100009F056C006C08430A9F0853009F050C0F1
:100F20004DC00E945907802F0E941B05812F90E021
:100F30000E946B050E94600743C0812F90E00E94D1
:100F400094013CC083E891E069E00E94901583E839
:100F500091E060E070E00E94040C83E891E06AE0B8
:100F60000E94901583E891E060E070E00E94040C1C
:100F700083E891E061E00E94901583E891E060E0F1
:100F800070E00E94040C83E891E062E00E949015FA
:100F900083E891E060E070E00E94040C8DE492E050
:100FA00040E050E060E070E00E94000D84E592E0D7
:100FB00040E050E060E070E00E94000D0E94650794
:100FC0001F910F9108950E9418230E94542E20E033
:100FD00030E04AE754E40E94BB2D2091D1023091C9
:100FE000D2024091D3025091D4020E94F02C60931F
:100FF000D5027093D6028093D7029093D80288EBE3
:1010000091E00E944515882371F088EB91E00E94E1
:101010003415181619064CF488EB91E00E9401155E
:101020008093CE0202C01092CE020E9406058DEF80
:1010300091E00E94571982E292E00E945719809134
:101040006102882309F44FC02091CF02253571F445
:101050008091CD02882351F48091D0028F3F31F5E9
:1010600081E08093CB028093CD0220C02093D002F8
:101070008091CD028823D1F09091CB02923019F467
:101080002093CC0207C0933028F08091CC0281508D
:101090008093CC02E92FF0E080916202882319F05E
:1010A000E956FD4F02C0ED59FD4F20838091CB02E0
:1010B0008F5F8093CB02843320F01092CB0210928A
:1010C000CD028091CD02882371F08091CC028823DB
:1010D00051F48091CB02843030F01092CD020E9406
:1010E0006E071092CB0208950F931F93DF93CF9357
:1010F000CDB7DEB7C855D0400FB6F894DEBF0FBEEF
:10110000CDBF8DE061E00E946C248DE061E00E9423
:10111000AB246CE271E080E090E00E944C238DE013
:1011200060E00E94AB248BE695E040E052EC61E089
:1011300070E00E947C26CE010F960E949517898947
:101140009A89AB89BC898093FF0190930002A09398
:101150000102B09302028D89809303028E898093ED
:1011600004028F8980930502888D998DAA8DBB8D8D
:101170008093060290930702A0930802B09309029D
:101180008C8D9D8DAE8DBF8D80930A0290930B0246
:10119000A0930C02B0930D0288A199A1AAA1BBA1B2
:1011A00080930E0290930F02A0931002B09311024D
:1011B0008CA19DA1AEA1BFA18093120290931302B6
:1011C000A0931402B093150288A599A5AAA5BBA562
:1011D0008093160290931702A0931802B0931902FD
:1011E0008CA59DA5AEA5BFA580931A0290931B0266
:1011F000A0931C02B0931D0288A999A9AAA9BBA912
:1012000080931E0290931F02A0932002B0932102AC
:10121000CE01C4960E9495178EA99FA9A8ADB9AD1D
:101220008093240290932502A0932602B093270274
:101230008AAD809328028BAD809329028CAD809378
:101240002A02FE01FD9680819181A281B381809363
:101250002B0290932C02A0932D02B0932E02FE013C
:10126000EF5BFF4F80819181A281B38180932F0238
:1012700090933002A0933102B0933202FE01EB5BF7
:10128000FF4F80819181A281B3818093330290933B
:101290003402A0933502B0933602FE01E75BFF4FA4
:1012A00080819181A281B38180933702909338022B
:1012B000A0933902B0933A02FE01E35BFF4F8081B5
:1012C0009181A281B38180933B0290933C02A093D1
:1012D0003D02B0933E02FE01EF5AFF4F80819181A3
:1012E000A281B38180933F0290934002A093410278
:1012F000B0934202FE01EB5AFF4F80819181A2819F
:10130000B3818093430290934402A0934502B0932B
:1013100046028E010F5F1F4FC80161E00E94A40EBC
:10132000ADE4B2E0F80187E001900D928150E1F761
:101330008E01085F1F4FC80162E00E94A40EA4E561
:10134000B2E0F80187E001900D928150E1F78DE461
:1013500092E00E948E0E84E592E00E948E0E64EF71
:1013600071E080E090E00E944C238DE492E040E048
:1013700050E060E070E00E94000D84E592E040E003
:1013800050E060E070E00E94000DC85ADF4F0FB6D9
:10139000F894DEBF0FBECDBFCF91DF911F910F91AB
:1013A00008952F923F924F925F926F927F928F9209
:1013B0009F92AF92BF92CF92DF92EF92FF920F93E4
:1013C0001F93CF93DF931A012B01E90137FD44C02E
:1013D0002196BE01882777FD8095982F21970E943E
:1013E000562E9B01AC0160E070E080E291E40E9427
:1013F000EE2F5B016C01C201B101A60195010E94B3
:10140000BB2D0E94912E3B014C01BE01882777FD28
:101410008095982F0E94562E9B01AC0160E070E0F1
:1014200080E291E40E94EE2F7B018C01C401B301A4
:10143000A60195010E948B2F9B01AC01C201B10155
:101440000E94F02CA80197010E94BB2D0E94912EB2
:101450000E94232ECB011CC000271127021B130B57
:10146000C0E0D0E0C201B10120E030E040E251E450
:101470000E948B2F1B012C012196C017D10794F3DA
:101480000E94232EDC01CB016AE070E00E949C31B7
:10149000DF91CF911F910F91FF90EF90DF90CF9050
:1014A000BF90AF909F908F907F906F905F904F9084
:1014B0003F902F9008950F931F938C01FC0180851E
:1014C00060E00E94AB24F801818560E00E94AB24BB
:1014D000F801808561E00E94AB24F801818561E01C
:1014E0000E94AB241F910F9108950F931F938C01BD
:1014F000FC01808561E00E94AB24F801818561E0F8
:101500000E94AB24F801818560E00E94AB24F801C1
:10151000808560E00E94AB241F910F9108950F9386
:101520001F938C01E62FDC0112966C931297F0E06A
:10153000EE0FFF1FE85EFE4F818111968C9311978D
:1015400090819C9318968C93189719969C9361E0C0
:101550000E946C24F801818561E00E946C2480E483
:10156000D80114968C93149780EC15968C9315974C
:101570008AE816968C931F910F910895FF920F930E
:101580001F93CF93DF93EC01162FFF24888560E033
:101590000E94AB24012F112707FD109500FF03C007
:1015A000898561E002C0898560E00E94AB2488855E
:1015B00061E00E94AB24F39488E0F81621F01595C1
:1015C0000795102FE3CF888560E00E94AB248985C2
:1015D00061E00E94AB24888561E00E94AB2489858C
:1015E00060E00E946C240BC01F5F183C49F48985A1
:1015F00061E00E946C24898560E00E94AB2410E0C9
:1016000089850E94FF24892B79F7898561E00E94F2
:101610006C24DF91CF911F910F91FF9008950F934C
:101620001F93DF93CF9300D000D0CDB7DEB78C01EE
:1016300020E030E0AE014F5F5F4FFA01E20FF31F91
:10164000DB01A20FB31F8C9180832F5F3F4F2430AB
:10165000310599F7DA019E012B5F3F4FEC91EF378F
:1016600011F41C9207C0FF27E7FDF095EA5CFE4FDE
:1016700080818C931196A217B30781F7C8010E944D
:10168000750AC80160E40E94BE0AC8010E945B0A94
:10169000C8010E94750AC801F80165810E94BE0A4E
:1016A000C80169810E94BE0AC8016A810E94BE0AFF
:1016B000C8016B810E94BE0AC8016C810E94BE0AEB
:1016C000C8010E945B0AC8010E94750AC801F8019E
:1016D00066810E94BE0AC8010E945B0A0F900F90AB
:1016E0000F900F90CF91DF911F910F9108952F923E
:1016F0003F924F925F926F927F929F92AF92BF9272
:10170000CF92DF92EF92FF920F931F93DF93CF93CD
:1017100000D000D0CDB7DEB73C017A018B01198231
:101720001A821B821C82CB01BA0120E030E040E02B
:1017300050E00E94B72D87FD03C0AA24BB2409C036
:1017400017FB109517F9109580E2898331E0A32EDD
:10175000B12CCC24DD24992423E0222E312C2E011F
:101760000894411C511C91012C193D09C301B80179
:10177000A7010E94D109181619063CF023E0C216F1
:10178000D10439F09920B1F00EC023E0C216D10483
:1017900041F4F201EA0DFB1D805F8083992493944C
:1017A00006C099249394F201EA0DFB1D80830894EE
:1017B000A11CB11C84E0A816B1043CF40894C11C1F
:1017C000D11C27E0C216D10471F6C301BE016F5FC0
:1017D0007F4F0E940F0B0F900F900F900F90CF91A3
:1017E000DF911F910F91FF90EF90DF90CF90BF900E
:1017F000AF909F907F906F905F904F903F902F9011
:1018000008950E945C150895EF92FF920F931F9325
:10181000CF93DF93F82EE92EEB016F3F710519F09E
:1018200014F0CFEFD0E08E018FEFC130D8071CF459
:1018300001E01FEF0BC0D7FD09C08F2D9E2D61E089
:101840000E94C8158F2D9E2DBE010BC08F2D9E2D81
:1018500060E00E94C81566277727601B710B8F2DEB
:101860009E2D0E94B915DF91CF911F910F91FF908E
:10187000EF90089560E00E946E1508952F923F92B8
:101880004F925F926F927F928F929F92AF92BF9290
:10189000CF92DF92EF92FF920F931F93DF93CF933C
:1018A00000D000D0CDB7DEB75C011A012B01C98290
:1018B000DA82EB82FC8285EAD5018C9311962C9317
:1018C0001197FE0131961296CC9212978181139650
:1018D0008C931397828114968C9314978381159619
:1018E0008C9326E030E040E050E0CC24DD2476010B
:1018F00011C0F501E20FF31FD801AC0DBD1D8C9195
:1019000080832F5F3F4F4F4F5F4F0894C11CD11C06
:10191000E11CF11C69807A808B809C80C614D704FE
:10192000E804F90430F390E0CC24DD2476010AC009
:10193000F801EC0DFD1D808198270894C11CD11C75
:10194000E11CF11CC614D704E804F90488F3F5017E
:10195000E20FF31F9083DA01C9010196A11DB11DA9
:10196000A80EB91E2AE5F50120838C019D010F5FA9
:101970001F4F2F4F3F4F201631064206530620F4CB
:1019800000E010E020E030E0B801C9010F900F90B6
:101990000F900F90CF91DF911F910F91FF90EF90DB
:1019A000DF90CF90BF90AF909F908F907F906F907F
:1019B0005F904F903F902F9008958130910541F4B2
:1019C0006F5F7F4F71F489ED92E00E945812089585
:1019D000892B39F46F5F7F4F21F489ED92E00E94EB
:1019E0007912089580E090E06FEF7FEF0E94DD0CA8
:1019F000089581E090E06FEF7FEF0E94DD0C089585
:101A00006F927F928F929F92AF92BF92CF92DF920E
:101A1000EF92FF920F931F93DF93CF93CDB7DEB773
:101A20006E970FB6F894DEBF0FBECDBF3C01B1E19B
:101A3000AB2EB12CAC0EBD1E8EE0D5011D928A9549
:101A4000E9F7A7E08A2E912C8C0E9D1E8AE0F40106
:101A500011928A95E9F7FE01319686E0DF011D9229
:101A60008A95E9F7D30116968C91898385E08A835C
:101A70004B835C836D837E83C5014EE050E060E064
:101A800070E021E08F01F6E0CF2ED12CE12CF12C7B
:101A90000E943E0CC301B501A4012EE030E00AE033
:101AA00010E00E94AA1B09ED12E0C801B4012AE06F
:101AB00030E040E050E00E947A12C8010E945213C8
:101AC00080E06E960FB6F894DEBF0FBECDBFCF910B
:101AD000DF911F910F91FF90EF90DF90CF90BF901B
:101AE000AF909F908F907F906F9008952F923F922C
:101AF0004F925F926F927F928F929F92AF92BF921E
:101B0000CF92DF92EF92FF920F931F93DF93CF93C9
:101B1000CDB7DEB7A8970FB6F894DEBF0FBECDBF26
:101B20001C016A017B0128013901CB01BA0120E0C7
:101B300030E040E050E00E94B72D882331F4C1012D
:101B4000B301A2010E94000D5BC007E1A02EB12CE1
:101B5000AC0EBD1E82E1D5011D928A95E9F78AE09F
:101B600013E0812E912C8C0E9D1EF401982F119262
:101B70009A95E9F7FE013D96DF011D928A95E9F7F6
:101B8000D10116968C918D8781E18E87C282D38296
:101B9000E482F5824682578260867186C50142E101
:101BA00050E060E070E021E08F01BAE0CB2ED12C54
:101BB000E12CF12C0E943E0CC101B501A40122E1EF
:101BC00030E00AE010E00E94AA1B89ED92E0B40127
:101BD0002AE030E040E050E00E947A1289ED92E085
:101BE0000E9452131A82198289ED92E0BE016F5F42
:101BF0007F4F22E030E040E050E00E9410138A81E5
:101C0000A8960FB6F894DEBF0FBECDBFCF91DF917F
:101C10001F910F91FF90EF90DF90CF90BF90AF900A
:101C20009F908F907F906F905F904F903F902F90FC
:101C300008956F927F928F929F92AF92BF92CF92B0
:101C4000DF92EF92FF920F931F93DF93CF93CDB765
:101C5000DEB768970FB6F894DEBF0FBECDBF3C016C
:101C60008AE015E0A12EB12CAC0EBD1EF501982F17
:101C700011929A95E9F7BFE08B2E912C8C0E9D1E48
:101C8000F40111928A95E9F7F3018681898387E04F
:101C90008A83C5014AE050E060E070E021E08E01F7
:101CA0000F5F1F4FA2E0CA2ED12CE12CF12C0E9415
:101CB0003E0CC301B501A4012AE030E00AE010E0C7
:101CC0000E94AA1B09ED12E0C801B4012AE030E02D
:101CD00040E050E00E947A121C821B82C801BE01C3
:101CE0006D5F7F4F22E030E040E050E00E94101333
:101CF0008C8168960FB6F894DEBF0FBECDBFCF9132
:101D0000DF911F910F91FF90EF90DF90CF90BF90E8
:101D1000AF909F908F907F906F9008950F931F9337
:101D20008C010E94211CC8010E94190E1F910F9165
:101D300008950F931F938C0168E00E94361CF801F0
:101D400016821F910F910895EF92FF921F937C01CD
:101D5000162F68E00E94361C1150F70116831F9160
:101D6000FF90EF9008950895EF92FF920F931F93C5
:101D7000FC01E08CF18C028D138DC801B70120E0CD
:101D800030E040E050E00E94B72D882329F4E0E0E5
:101D900070E080E060E00AC0C801B70120E030E0F8
:101DA00040E251E40E94BB2DE62F692F2E2F372FE2
:101DB000482F562FB901CA011F910F91FF90EF9044
:101DC0000895EF92FF920F931F93CF93DF93FC013F
:101DD000C0A1D1A1209729F4E0E070E080E060E0AC
:101DE00027C0668D778D882777FD8095982F0E9474
:101DF000562E7B018C01BE01882777FD8095982F98
:101E00000E94562E9B01AC01C801B7010E94BB2D58
:101E10000E948F2D20E030E044E353E40E948B2F9A
:101E20002AED3FE049E450E40E94BB2DE62F692FE4
:101E30002E2F372F482F562FB901CA01DF91CF918E
:101E40001F910F91FF90EF900895EF92FF920F93E3
:101E50001F93CF93DF93FC01C0A1D1A1209729F458
:101E6000E0E070E080E060E027C0648D758D882739
:101E700077FD8095982F0E94562E7B018C01BE0124
:101E8000882777FD8095982F0E94562E9B01AC01E4
:101E9000C801B7010E94BB2D0E948F2D20E030E0C9
:101EA00044E353E40E948B2F2AED3FE049E450E4E1
:101EB0000E94BB2DE62F692F2E2F372F482F562F2C
:101EC000B901CA01DF91CF911F910F91FF90EF905F
:101ED0000895EF92FF921F93CF93DF93162F7A010D
:101EE000E90180E694E068E670E00E944B1E80E61F
:101EF00094E0612F0E94CD1E019719F02CEE3FEF68
:101F000013C080E694E0B701AE010E949C1E8C17BE
:101F10009D0719F02BEE3FEF07C080E694E061E0EB
:101F20000E94FD1E282F30E0C901DF91CF911F9143
:101F3000FF90EF900895DF93CF930F92CDB7DEB768
:101F40004983AE014F5F5F4F21E030E00E94690F8F
:101F50000F90CF91DF910895AF92BF92CF92DF9211
:101F6000EF92FF920F931F937C016BE670E040E0CD
:101F70000E949B0F5C01C7016AE170E041E00E9492
:101F80009B0F8C01C7016BE170E048E00E949B0F42
:101F90006C0160E070E08AE794E4F70126A537A5BC
:101FA00040A951A90E94BB2D20E030E040E85FE34A
:101FB0000E94F02C0E94282E9B01AC01C70169E110
:101FC00070E0422F0E949B0F0A0D1B1D0C0D1D1D62
:101FD000080F191FC8011F910F91FF90EF90DF901C
:101FE000CF90BF90AF900895CF92DF92EF92FF9283
:101FF0000F931F93CF93DF93162F6A01790180E629
:1020000094E068E670E00E944B1E80E694E0612F49
:102010000E94CD1E019719F006EF1FEF35C080E634
:1020200094E060E00E94FD1E082F10E001151105EC
:1020300059F581E090E00E94A52380E694E068E6EF
:1020400070E0A70121E030E00E94211FC0E0D0E055
:1020500080E694E00E94551E892B69F0CE15DF05BD
:1020600054F480E694E00E945E1EF601EC0FFD1F22
:1020700080832196EDCF81E090E00E94A523CE15CC
:10208000DF0511F005EF1FEFC801DF91CF911F9120
:102090000F91FF90EF90DF90CF9008952F923F9295
:1020A0004F925F926F927F928F929F92AF92BF9268
:1020B000CF92DF92EF92FF920F931F93DF93CF9314
:1020C000CDB7DEB762970FB6F894DEBF0FBECDBFB7
:1020D0009A8B898B0E94182389899A890E94AC0F58
:1020E000892B09F0CCC149895A894E5C5F4F898997
:1020F0009A896BE370E02EE030E00E94F40F8823B1
:1021000009F0BDC1A989BA89D2969C91D29780E085
:10211000D3966C90D3977724682A792A5D967C921F
:102120006E925C97D4969C91D49780E0D596AC90B3
:10213000D597BB24A82AB92A5F96BC92AE925E9727
:10214000D6969C91D69780E0D7962C90D79733243B
:10215000282A392A91963C922E929097DA967C9171
:10216000DA9760E0DB962C9130E0622B732B8827A6
:1021700077FD8095982F0E94562EE989FA8922A131
:1021800033A144A155A10E94F02CA989BA892D91AF
:102190003D914D915C910E94BB2D6D837E838F8319
:1021A0009887E989FA89608B718B828B938B74ADE8
:1021B00060E025AD30E0622B732B882777FD80959A
:1021C000982F0E94562EA989BA8996962D913D91F5
:1021D0004D915C9199970E94F02CE989FA892081B0
:1021E0003181428153810E94BB2D69877A878B8719
:1021F0009C87A989BA8954966D937D938D939C93FE
:102200005797DE967C91DE9760E0DF962C9130E068
:10221000622B732B882777FD8095982F0E94562E6E
:10222000E989FA8922A533A544A555A50E94F02C79
:102230007B018C01A989BA896D917D918D919C91C9
:1022400020E030E040E85FE30E94F12C9B01AC010C
:10225000C801B7010E94BB2D6D877E878F87988B41
:10226000E989FA89608F718F828F938F882477FC38
:102270008094982CC401B3010E94562E3B014C015E
:10228000CC24B7FCC094DC2CC601B5010E94562EAC
:1022900069837A838B839C839B01AC010E948B2F83
:1022A0007B018C01442437FC4094542CC201B101C1
:1022B0000E94562E9B01AC010E948B2F5B016C018A
:1022C000C801B701A60195010E94F12C0E943E3081
:1022D0009B01AC01C401B3010E94642D1B012C01C0
:1022E000C401B301A40193010E948B2F9B01AC0197
:1022F000CA01A60195010E94F12C0E943E309B016B
:10230000AC0169817A818B819C810E94642D3B01A3
:102310004C016D817E818F819885A989BA899E96AD
:102320002D913D914D915C91D1970E94BB2D9B01C8
:10233000AC01E989FA8964817581868197810E945F
:10234000F12C7B018C01A989BA8914966D937D9338
:102350008D939C93179769857A858B859C859E962E
:102360002D913D914D915C91D1970E94BB2D9B0188
:10237000AC01E989FA8960857185828593850E941F
:10238000F02C5B016C01A989BA8918966D937D9335
:102390008D939C931B976D857E858F8598899E96DE
:1023A0002D913D914D915C91D1970E94BB2D9B0148
:1023B000AC01E989FA8964857585868597850E94CF
:1023C000F12CA989BA891C966D937D938D939C936A
:1023D0001F97C801B7012FE832EC45E75FE30E9481
:1023E0008B2F7B018C01C401B30120E030E044E37A
:1023F00053E40E948B2F2BED3FE049E450E40E9410
:10240000BB2D2AE037ED43E25DE30E948B2F9B0159
:10241000AC01C801B7010E94F12CE989FA896483F3
:10242000758386839783C601B5012FE832EC45E7B3
:102430005FE30E948B2F7B018C01C201B10120E080
:1024400030E044E353E40E948B2F2BED3FE049E45E
:1024500050E40E94BB2D2AE037ED43E25DE30E9489
:102460008B2F9B01AC01C801B7010E94F12CA989F7
:10247000BA8918966D937D938D939C931B97629662
:102480000FB6F894DEBF0FBECDBFCF91DF911F9185
:102490000F91FF90EF90DF90CF90BF90AF909F9003
:1024A0008F907F906F905F904F903F902F90089506
:1024B000FC0181E090E091838083EE5FFE4F1192FA
:1024C00011921192119211921192119211921192F4
:1024D00011921192119211921192119211921192E4
:1024E0001192119211921192108211821282138212
:1024F000089508953F924F925F926F927F928F92CC
:102500009F92AF92BF92CF92DF92EF92FF920F9382
:102510001F93DF93CF9300D000D0CDB7DEB74C012F
:102520007A83698329013A0192E0C92E91E0D92E7C
:10253000C80CD91CF60180819181A281B3818150A0
:102540009F4FAF4FBF4FF401EA5FFE4F20813181B3
:1025500042815381821B930BA40BB50B9070A0702A
:10256000B07084159505A605B70538F0EE24FF2454
:102570008701DC82CB82BF0138C080E03BC0E981AB
:10258000FA81EE0DFF1D3080AB81BC812D913D9114
:102590004D915C912F5F3F4F4F4F5F4F8FEFA82EB4
:1025A000B12CC12CD12CA222B322C422D52221507D
:1025B000304040405040FB0180819181A281B38135
:1025C000A816B906CA06DB0659F0F401E20FF31F9C
:1025D0003282AB81BC81AD92BD92CD92DC921397D9
:1025E0000894E11CF11C011D111DE414F5040605FD
:1025F000170528F20F900F900F900F90CF91DF9159
:102600001F910F91FF90EF90DF90CF90BF90AF9010
:102610009F908F907F906F905F904F903F90089524
:10262000FF920F931F93CF93DF93EC01C45FDE4FB4
:1026300088819981AA81BB81CC50D14082179307B0
:10264000A407B50718F4F82E592F02C0F22E532F05
:102650008E01005F1E4FD801ED91FC913097D1F0B3
:1026600061157105B9F0CB01BF014F2D0E94E90042
:10267000F801808191810E943822D8011D921C921C
:10268000C45FDE4F188219821A821B822297188239
:102690004F2D01C040E0842FDF91CF911F910F910A
:1026A000FF9008952F923F924F925F926F927F9288
:1026B0008F929F92AF92BF92CF92DF92EF92FF9252
:1026C0000F931F93DF93CF93CDB7DEB72C970FB641
:1026D000F894DEBF0FBECDBF9C878B87845F9E4F73
:1026E0009A8389838B859C858A5F9E4F9C838B838D
:1026F000AB85BC85AE5FBE4FBE83AD83B7E1CB2E4D
:10270000B1E0DB2EEB85FC85CE0EDF1EA3E18A2E29
:10271000A1E09A2E8E0E9F1EE55FFE4FF887EF8395
:10272000F2E12F2EF1E03F2E8B859C85280E391E7D
:10273000865F9E4F9A878987AA24A394E0E14E2E54
:10274000E1E05E2EAB85BC854A0E5B1E69807A8017
:10275000FAC0B5EABB1609F0F6C082E090E005C009
:10276000AF81B885BC9283E090E0EB85FC859183D6
:102770008083E9C0D401ED91FC91119789819A8100
:10278000E80FF91FB0828D919D910D90BC91A02D05
:102790000196A11DB11DF40180839183A283B383AF
:1027A0000497A105B10509F0CEC0D4011D921D9278
:1027B0001D921C92139784E090E0D7CFF6018081A0
:1027C0009181A281B3810097A105B105D1F4F301F4
:1027D00080819181A281B3818F3F9105A105B105CF
:1027E00009F040F401960E949B21F20191838083BD
:1027F000009739F4E1E0F0E0AB85BC85ED93FC9304
:102800005BC0D201ED91FC91D6018D919C91119705
:10281000E80FF91FB0828D919D910D90BC91A02D74
:102820000196A11DB11DF60180839183A283B3831C
:10283000F301208131814281538182179307A407DC
:10284000B50709F080C0D6011D921D921D921C9201
:10285000139785E090E089CFD101BC92F2016081AD
:102860007181D301ED90FD900D911C9120E030E03D
:1028700040E050E090E009C0FB01E20FF31F8081CF
:1028800098272F5F3F4F4F4F5F4F2E153F05400753
:10289000510790F3B91639F181E090E0EB85FC85A2
:1028A00091838083D2018D919C91009729F00E94A1
:1028B0003822F20111821082D6011D921D921D92C2
:1028C0001C921397F4011082118212821382D30199
:1028D0001D921D921D921C921397EF81F885108214
:1028E000D1011C9230C086E090E03FCF9AE5B91646
:1028F00089F0D2018D919C91009729F00E94382295
:10290000F20111821082D3011D921D921D921C9220
:10291000139703C0E985FA85A082E1E0F0E0AB857A
:10292000BC85ED93FC93D6011D921D921D921C92C5
:102930001397F4011082118212821382AF81B8853D
:102940001C92F1011082AB81BC812D913D914D9182
:102950005C91ED81FE8180819181A281B38182179A
:102960009307A407B50789F1EB85FC85E20FF31FF8
:10297000B2802F5F3F4F4F4F5F4F307040705070AD
:10298000AB81BC812D933D934D935C931397EB8565
:10299000FC85808191818330910509F4EBCE8430F0
:1029A00091053CF48130910509F4D3CE029759F694
:1029B000D7CE8530910509F44FCF853091050CF4C1
:1029C000FDCE069709F0BFCF91CFAB85BC858C912A
:1029D0002C960FB6F894DEBF0FBECDBFCF91DF911E
:1029E0001F910F91FF90EF90DF90CF90BF90AF902D
:1029F0009F908F907F906F905F904F903F902F901F
:102A00000895FC01848114820895EF92FF921F9330
:102A1000CF93DF937C01FC0181810E94FF24892BED
:102A200011F010E01AC010E0C0E0D0E085E690E0C0
:102A30000E94A523F70181810E94FF240C2E02C071
:102A4000880F991F0A94E2F7182B2196C830D105F8
:102A500069F785E690E00E94A523812FDF91CF9151
:102A60001F91FF90EF900895CF93DF93EC010E94A8
:102A7000051518161CF020E030E003C08C8321E01F
:102A800030E0C901DF91CF9108950F931F93182F64
:102A9000092F0E948A15882311F490E006C0812F27
:102AA000902F0E94021691E09827892F1F910F9175
:102AB00008950E945C150895FC018091180180839F
:102AC00080911901818312820895FC01809118017F
:102AD000808380911901818312820895DC01E62FA1
:102AE000F0E0EE0FFF1FE85EFE4F80818C93818146
:102AF00011968C93119712966C9381E080938000CD
:102B00008BE08093810083E08093B00084E0809329
:102B1000B1000895FC0182810895FC01838108952C
:102B2000DC01E62FF0E0EE0FFF1FE85EFE4F808134
:102B30008C93818111968C93119712966C930895C2
:102B4000DC01E62FF0E0EE0FFF1FE85EFE4F808114
:102B50008C93818111968C93119712966C93129796
:102B600013964C930895FC0180810895FC018181A6
:102B70000895FC0180810E940C240895FC0181814C
:102B80000E94EA230895FC0180810E94EA230895AF
:102B9000FF920F931F938C01F62EFC01818161E05F
:102BA0000E946C24F80181816F2D0E94AB241F913B
:102BB0000F91FF900895FF920F931F938C01F62EB3
:102BC000FC01808161E00E946C24F80180816F2DFE
:102BD0000E94AB241F910F91FF9008950F931F93B4
:102BE0008C01FC01818160E00E946C24F8018181EC
:102BF0000E94FF2420E0892B09F021E0822F1F9101
:102C00000F9108950F931F938C01FC01808160E068
:102C10000E946C24F80180810E94FF2420E0892B0F
:102C200009F021E0822F1F910F9108950F93DC018D
:102C3000522F262F30E014968D919C9115972817CE
:102C4000390710F080E01BC083E0689F802D1124BD
:102C500090E01696ED91FC911797E80FF91F5083BD
:102C60001696ED91FC911797E80FF91F4183169680
:102C7000ED91FC911797E80FF91F028381E00F9106
:102C800008951F93DC01722F50E013E01AC0519F8A
:102C9000802D112490E01696ED91FC911797E80F86
:102CA000F91F40831696ED91FC911797E80FF91FD5
:102CB00061831696ED91FC911797E80FF91F7283C7
:102CC0005F5F252F30E014968D919C911597281702
:102CD0003907E8F281E01F910895CF93DF93FC015B
:102CE000C681D781848195819C01220F331F280FD3
:102CF000391F9485A085B1855FB7F8948C91492FD1
:102D000040954823982B11C0899168E09C9300C09E
:102D100087FF4C93880F00C000C000C008F44C939C
:102D200000C06A9599F7215030402115310561F7AF
:102D30005FBFDF91CF9108950895CF93DF93EC01AA
:102D400070E07D836C83CB01880F991F860F971FDE
:102D50000E949B218E839F8340E050E007C0EE815C
:102D6000FF81E40FF51F10824F5F5F4F2C813D8183
:102D7000C901880F991F820F931F4817590778F3CD
:102D8000DF91CF910895DC01E62F12966C93129794
:102D9000F0E0EE0FFF1FE85EFE4F818111968C93ED
:102DA000119790819C93282F30E0F901E75BFE4F4B
:102DB000E4911C96EC931C972B5C3E4FF9012491F7
:102DC00030E0220F331FF901EF5DFE4F4591549122
:102DD00019965C934E931897F901E95EFE4F259181
:102DE00034911B963C932E931A9761E00E946C24B9
:102DF00008950F931F938C0160E00E946E15C80127
:102E000060E10E949D161F910F910895AF92BF92AD
:102E1000CF92DF92EF92FF920F931F93CF93DF93A6
:102E2000EC017A018B01498B5A8B6B8B7C8B60E0B8
:102E300070E08AE794E4A80197010E94BB2D5B0132
:102E40006C0120E030E040E050E00E94802F181636
:102E50001CF4C601B50108C060E070E08AE794EC9C
:102E6000A80197010E94BB2D20E030E04AE754E41E
:102E70000E948B2F0E94282E6D8F7E8F8F8F98A39C
:102E800069897A898B899C8920E030E040E050E0B4
:102E90000E94802F18161CF481E08E8301C01E82D0
:102EA0008A816E810E94AB24DF91CF911F910F9197
:102EB000FF90EF90DF90CF90BF90AF9008950F9369
:102EC0001F938C01DC01ED91FC910280F381E02DD8
:102ED0000995AB01BC01C8010E9406171F910F9113
:102EE0000895FC01458B568B678B708F0E945F178E
:102EF0000895FC01458756876787708B0E945F178E
:102F000008950F931F938C01FC01838161E00E945F
:102F1000AB2481E090E00E94A523F801838160E06A
:102F20000E94AB241F910F9108950F931F938C0162
:102F3000029660E00E946E158BE591E0F8019183A6
:102F400080831F910F9108950F931F938C01029618
:102F50000E946E158BE591E0F801918380831186C4
:102F6000128613861486158616861786108A80E0C8
:102F700090E0A0E0B0E0818B928BA38BB48B80E0DB
:102F800090E8ABE3B5E4858B968BA78BB08F818FF0
:102F9000928FA38FB48F158E168E178E10A211A24A
:102FA00012A213A214A281E08683828161E00E94B2
:102FB0006C24F801838161E00E946C24F801828115
:102FC00066810E94AB241F910F910895AF92BF922A
:102FD000CF92DF92EF92FF920F931F93CF93DF93E5
:102FE000EC012D853E854F85588989859A85AB856D
:102FF000BC85281B390B4A0B5B0B59F40F2EF0E0F4
:10300000EF2EF0E0FF2EF0E00F2FF0E01F2FF02D5D
:10301000DDC012161306140615069CF4CA01B90188
:103020000E94562E9B01AC010E94F12C298D3A8DF5
:103030004B8D5C8D0E948B2F0E943E307B018C015A
:103040001BC066277727CB01621B730B840B950B84
:103050000E94562E9B01AC010E94F12C298D3A8DC5
:103060004B8D5C8D0E948B2F0E943E307B018C012A
:1030700017FB109517F91095A988BA88CB88DC88BA
:10308000C801B701A60195010E94802F18160CF007
:1030900047C0C601B50120E030E040E050E00E94AA
:1030A000B72D882359F4298D3A8D4B8D5C8DCA013B
:1030B000B9010E94F12C0E943E301CC0698D7A8DAE
:1030C0008B8D9C8DA60195010E94BB2D7B018C01EF
:1030D00020E030E040E050E00E94802F181624F0FD
:1030E00017FB109517F91095C601B501A8019701B6
:1030F0000E94F12C7B018C01DD88CE88BF88A88CD2
:103100002D2D3C2D4B2D5A2D0E94802F18160CF082
:103110005DC08D2D9C2DAB2DBA2D7C018D0156C02F
:10312000C801B701A60195010E94B72D88230CF0B4
:103130004DC0C601B50120E030E040E050E00E9403
:10314000B72D882389F4298D3A8D4B8D5C8DCA016A
:10315000B9010E94F12C0E943E307B018C0117FBCB
:10316000109517F910951EC0698D7A8D8B8D9C8DE9
:10317000A60195010E94BB2D7B018C0120E030E06F
:1031800040E050E00E94802F181624F017FB1095A5
:1031900017F91095C601B501A80197010E94F02CFE
:1031A0007B018C018D899E89AF89B88D5C016D0191
:1031B000D7FAD094D7F8D094C801B701A6019501E9
:1031C0000E94B72D882314F486017501B701C80148
:1031D000DF91CF911F910F91FF90EF90DF90CF90F3
:1031E000BF90AF900895AF92BF92CF92DF92EF92CF
:1031F000FF920F931F93CF93DF93EC010E9426233E
:103200005B016C018D8D9E8DAF8DB8A129A13AA176
:103210004BA15CA1820F931FA41FB51F8A159B05AC
:10322000AC05BD0510F080E037C0E988FA880B894D
:103230001C89C801B70120E030E040E050E00E9466
:10324000802F181644F489859A85AB85BC85019634
:10325000A11DB11D11C0C801B70120E030E040E060
:1032600050E00E94B72D88235CF489859A85AB8550
:10327000BC850197A109B10989879A87AB87BC876B
:10328000E881F9810190F081E02DCE010995A9A294
:10329000BAA2CBA2DCA281E0DF91CF911F910F9166
:1032A000FF90EF90DF90CF90BF90AF900895CF93B5
:1032B000DF93EC012D853E854F85588989859A8558
:1032C000AB85BC85281739074A075B0711F480E0F6
:1032D00009C0CE010E94F318882319F0CE010E9484
:1032E0005F1781E0DF91CF9108951F93CF93DF9314
:1032F000EC01142F0E94A015123011F4E98101C0D5
:10330000E8812E2F30E0C901875B9E4FFC0184913C
:103310008C832B5C3E4FF9018491E82FF0E0EE0F97
:10332000FF1FE55DFE4F859194919E838D83DF9114
:10333000CF911F9108950E945C150895DF92EF923E
:10334000FF920F931F93FC01E08001811281F8949A
:10335000F80181818E2981838281DE2CD0948D2198
:10336000828383E090E00E94A523F80181818D2172
:10337000818382818E2982838AE090E00E94A52346
:10338000F8010081789485E390E00E94A52380E015
:1033900010E0FF240E211F21012B09F081E01F9175
:1033A0000F91FF90EF90DF900895EF92FF920F93AF
:1033B0001F93CF93DF937C0101E010E0C0E0D0E0E9
:1033C000C7010E949E198111102B000F2196C83051
:1033D000D105B1F7812FDF91CF911F910F91FF9010
:1033E000EF9008951F93CF93DF93FC011081C1816B
:1033F000D281912F909560FF12C0F8948A81892321
:103400008A838981812B89838AE090E00E94A523A9
:103410008A81812B8A83789487E390E011C0F894A5
:103420008A8189238A838981812B898381E490E041
:103430000E94A5238A81812B8A83789485E090E07D
:103440000E94A523DF91CF911F910895CF92DF9223
:10345000EF92FF920F931F93CF93DF93EC01E42E33
:10346000FF24F39400E010E0C62EDD2460E08F2DF1
:1034700090E08C219D21892B09F061E0CE010E9412
:10348000F219FF0C0F5F1F4F0830110579F7EE207E
:10349000B1F4F894E981FA8191818881809598232B
:1034A0009183E981FA8182819881892B8283E981E4
:1034B000FA81928188818095982392837894DF9114
:1034C000CF911F910F91FF90EF90DF90CF900895D3
:1034D0006CEC40E00E94261A0895DF92EF92FF9272
:1034E0000F931F93CF93DF93FC010081C181D281A1
:1034F000F8948981D02ED0948D2189838A81802B64
:103500008A8378941DE7E02EFF24115071F182E048
:1035100090E00E94A523888190E08E219F21892B35
:10352000A1F3F8948A818D218A838981802B8983F4
:10353000789480EE91E00E94A523F89489818D21F2
:1035400089838A81802B8A8386E490E00E94A52368
:10355000888110E090E0E822F922EF2809F411E0D8
:1035600078948AE991E00E94A523812FDF91CF9181
:103570001F910F91FF90EF90DF900895EF92FF92CF
:103580000F931F93FC01E08001811281F80181817A
:103590009E2D90958923818382818E2982838AE062
:1035A00090E00E94A523F801808120E090E0FF24B4
:1035B0008E219F21892B09F021E0822F1F910F91ED
:1035C000FF90EF900895AF92BF92CF92DF92EF926B
:1035D000FF920F931F93DF93CF93CDB7DEB72C9756
:1035E0000FB6F894DEBF0FBECDBF74E0E72EF12C0E
:1035F000E80EF91EC7010E946D1AC7010E94681AE1
:10360000C70164E440E00E94261A0E9418235B016F
:103610006C01C7010E94BE1A8823C1F50E941823BD
:103620006A197B098C099D096E5E7240804090404A
:1036300068F5EFCFC7010E94D519F80181938F017A
:10364000EC15FD05B9F77A8160E0298130E0622B45
:10365000732B882777FD8095982F0E94562E20E0A7
:1036600030E040E85DE30E948B2F2C960FB6F89473
:10367000DEBF0FBECDBFCF91DF911F910F91FF90A5
:10368000EF90DF90CF90BF90AF900895C7010E9458
:103690006D1AC7010E94681AC7016EEB40E00E94D4
:1036A000261A8E010F5F1F4F66E0C62ED12CCC0E5E
:1036B000DD1EC0CFCF92DF92EF92FF920F931F9348
:1036C0008C016A017B0160E00E94C81582E090E0F5
:1036D0000E94A523C80161E00E94C8158AE090E01D
:1036E0000E94A523C80160E00E94C815F8018181ED
:1036F00060E00E946C24F801818161E0A7019601DD
:103700000E9452251F910F91FF90EF90DF90CF9074
:10371000089527E330E0629FA001639F500D729FE0
:10372000500D112448535F4F60E070E00E945A1B17
:103730000E94562E20E030E048E652E40E94BB2D65
:10374000089560E971E00E94891B089560E00E947D
:103750006E150895AF92BF92CF92DF92EF92FF92D3
:103760000F931F93CF93DF935C016B01EA01790103
:10377000FC016481758180E694E00E944B1E80E626
:1037800094E0B601A7010E949C1E80E694E00E948E
:10379000101F82E090E00E94A523F50164817581ED
:1037A00080E694E0A8010E94241F82E090E00E943D
:1037B000A52310E009C080E694E00E945E1EFE0191
:1037C000E10FF11D80831F5F80E694E00E94551E8B
:1037D000892B89F7DF91CF911F910F91FF90EF9087
:1037E000DF90CF90BF90AF900895CF92DF92EF928D
:1037F000FF920F931F937C01D62EC42E00E614E097
:10380000FC0164817581C8010E944B1EC8016D2DA9
:103810000E94CD1EC8010E94101FF70164817581AE
:10382000C8010E944B1EC8016C2D0E94CD1EC8010C
:103830000E94101F1F910F91FF90EF90DF90CF908B
:1038400008950F931F938C0168EE73E080E090E081
:103850000E944C2380E694E00E94281FC8016EE17C
:1038600041E00E94F51B1F910F910895EF92FF9286
:103870000F931F937C01062F0E945C1510E00F5FD1
:103880001F4FF701158304831F910F91FF90EF9055
:103890000895FC018091F4038C3090F480838F5F55
:1038A0008093F403815090E0FC01EE0FFF1FE80FBE
:1038B000F91FEB50FC4F88EB9BE0928381830895C6
:1038C0008FEF80830895FC0120812C30B8F5818131
:1038D000992787FD909548E850E0481B590B440F05
:1038E000551F440F551F6417750784F0828199276F
:1038F00087FD909548E552E0481B590B440F551F32
:10390000440F551F641775070CF4AB01425050402B
:10391000CA01AA2797FDA095BA2F880F991FAA1F41
:10392000BB1F4FB7F89430E0F901EE0FFF1FE20F15
:10393000F31FEB50FC4F928381834FBF0895AF92EA
:10394000BF92CF92DF92EF92FF920F931F93CF938C
:10395000DF93EC019B0182E0603278070CF048C0F5
:1039600077FF03C020E030E005C0653B710514F02F
:1039700024EB30E000D000D0B901882777FD809596
:10398000982F2981332727FD3095E8E8AE2EB12CFA
:10399000A21AB30AAA0CBB1CAA0CBB1CCC24B7FCF1
:1039A000C094DC2CEA81FF27E7FDF09528E532E0A2
:1039B0002E1B3F0B220F331F220F331F442737FDCF
:1039C0004095542FEDB7FEB7218332834383548350
:1039D00020E030E040E050E004EBE02EF12C012D3F
:1039E000112D0E940C2B9B010F900F900F900F90A8
:1039F000CE01B9010E94631CDF91CF911F910F91FD
:103A0000FF90EF90DF90CF90BF90AF900895CF924E
:103A1000DF92EF92FF921F93CF93DF93EC01162F6B
:103A20007A01690188818C3008F064C0862F61E0DA
:103A30000E946C24888190E0FC01EE0FFF1FE80FCC
:103A4000F91FEB50FC4F1F738081807C812B80839A
:103A500080E292E08E199F0964E070E00E949C3140
:103A6000698380E699E08C199D0964E070E00E940A
:103A70009C316A83A8818A2F6CE00E949031682F64
:103A800070E0AB01440F551F460F571F440F551FE1
:103A9000440F551F20E030E0C901840F951FFC0141
:103AA000EE0FFF1FE80FF91FEB50FC4F808186FDE2
:103AB00015C02F5F3F4F2C30310571F724C0109295
:103AC000800082E080938100109285001092840033
:103AD000B19A80916F00826080936F008A2F90E08E
:103AE000FC01EE0FFF1FE80FF91FEB50FC4F808128
:103AF000806480838881DF91CF911F91FF90EF9048
:103B0000DF90CF900895672BD1F2E8CF40E252E0EA
:103B100020E639E00E94071D08951F920F920FB60C
:103B20000F9211242F933F934F935F936F937F9343
:103B30008F939F93AF93BF93EF93FF93809119045B
:103B400087FF05C010928500109284002BC0209141
:103B50001904332727FD30958091F40390E028174E
:103B6000390704F580911904992787FD9095FC0188
:103B7000EE0FFF1FE80FF91FEB50FC4F808186FF0F
:103B800011C080911904992787FD9095FC01EE0FD3
:103B9000FF1FE80FF91FEB50FC4F80818F7360E02F
:103BA0000E94AB24809119048F5F809319042091A7
:103BB0001904332727FD30958091F40390E02817EE
:103BC00039070CF04EC0809119048C300CF049C0BC
:103BD000209184003091850080911904992787FDF8
:103BE0009095FC01EE0FFF1FE80FF91FEB50FC4F03
:103BF00081819281280F391F30938900209388009A
:103C000080911904992787FD9095FC01EE0FFF1F05
:103C1000E80FF91FEB50FC4F808186FF2BC080918D
:103C20001904992787FD9095FC01EE0FFF1FE80FFF
:103C3000F91FEB50FC4F80818F7361E00E94AB2431
:103C400019C080E49CE905C08091840090918500B2
:103C5000049690938900809388008FEF80931904D5
:103C600009C08091840090918500049680549C49FD
:103C700040F3EACFFF91EF91BF91AF919F918F9168
:103C80007F916F915F914F913F912F910F900FBE58
:103C90000F901F90189581E080935F0460933C041F
:103CA00010925D0410925E04089520913B0430E070
:103CB00080913A04281B3109C901089540913A04C2
:103CC00080913B04481718F02FEF3FEF0AC0E42F14
:103CD000F0E0E65EFB4F8081282F30E04F5F40939D
:103CE0003A04C9010895E0913A0480913B04E81731
:103CF00018F0EFEFFFEF06C0F0E0E65EFB4F8081CB
:103D0000E82FF0E0CF010895089510926304109217
:103D1000620488EE93E0A0E0B0E0809364049093A6
:103D20006504A0936604B093670483E691E09093E2
:103D30006104809360040895CF92DF92EF92FF9226
:103D40000F931F93CF93DF937C016B018A018091C6
:103D50005F048823A1F0C0E0D0E00DC0D701ED9151
:103D6000FC91D601AC0FBD1F0190F081E02DC70181
:103D70006C9109952196C017D10780F304C0CB013F
:103D8000642F0E94D11FC801DF91CF911F910F9125
:103D9000FF90EF90DF90CF900895DF93CF930F9235
:103DA000CDB7DEB7FC01698380915F048823C9F039
:103DB00080915E04803238F081E090E093838283CA
:103DC00020E030E015C080915D04E82FF0E0E35C76
:103DD000FB4F998190838F5F80935D0480935E0495
:103DE00005C0CE01019661E00E94D11F21E030E0C4
:103DF000C9010F90CF91DF9108950F93062F809105
:103E00003C046DE374E040915E0421E00E947C1F5D
:103E100010925D0410925E0410925F040F91089559
:103E200061E00E94FD1E0895413208F040E2862FB5
:103E30006AE174E00E94331F10923A0480933B04BD
:103E400008950E94141F089521E00E94141F0895F0
:103E500010923A0410923B0410925D0410925E049A
:103E60000E947D210895382F413210F040E042C079
:103E700080916C048823E1F791E090936C04209387
:103E80006E048FEF8093D9041092940441504093B4
:103E900095044F5F90936D0480916D04330F832BD5
:103EA00080936D0480916F04813041F410926F040F
:103EB00080916D048093BB0085EC01C085EE8093FA
:103EC000BC0080916C048130E1F3809194048417EC
:103ED00010F44091940420E030E00AC0FB01E20FAE
:103EE000F31FD901AC58BB4F8C9180832F5F3F4F9C
:103EF0002417A0F3842F08950F931F93582F122F88
:103F0000413210F081E04AC080916C048823E1F7CF
:103F100082E080936C0400936E048FEF8093D90449
:103F20001092940440939504A4E7B4E0FB0102C00E
:103F300081918D938E2F861B8417D0F310926D0480
:103F400080916D04550F852B80936D0480916F04D3
:103F5000813041F410926F0480916D048093BB0016
:103F600085EC01C085EE8093BC00112321F0809187
:103F70006C048230E1F38091D9048F3F11F480E02A
:103F80000DC08091D904803211F482E007C0809185
:103F9000D904803311F084E001C083E01F910F91B8
:103FA0000895482F613210F081E0089580916C04EB
:103FB000843011F082E008956093B704A6E9B4E07C
:103FC000842F9C01F90102C081918D938E2F841B57
:103FD0008617D0F380E008951F920F920FB60F92CC
:103FE00011242F933F934F935F936F937F938F93FE
:103FF0009F93AF93BF93EF93FF938091B90090E0AD
:10400000887F90708036910509F4F2C08136910561
:10401000CCF58832910509F47BC089329105B4F45E
:104020008031910509F46FC0813191053CF400970E
:1040300009F447C1089709F04FC165C0883191055F
:1040400009F466C0809709F047C182C080349105A9
:1040500009F4A4C08134910544F48033910509F436
:1040600082C0C89709F038C189C08035910509F42C
:1040700089C08835910509F496C08834910509F006
:104080002BC1AEC08839910509F413C18939910556
:10409000ECF48837910509F4ABC0893791054CF4ED
:1040A0008836910509F4A4C08037910509F014C140
:1040B0009FC08838910509F4FCC08039910509F446
:1040C0009DC08038910509F007C198C0803B9105DB
:1040D00009F4C6C0813B91054CF4803A910509F47E
:1040E0009FC0883A910509F0F7C0BAC0803C91059D
:1040F00009F4E3C0883C910509F4DFC0883B9105D1
:1041000009F0EAC0C2C080916D048093BB00CFC0AB
:104110009091940480919504981768F49091940478
:10412000E92FF0E0EC58FB4F80818093BB009F5F4C
:1041300090939404BCC080916E04882309F44BC012
:1041400085ED8093BC008091BC0084FDFCCFC2C093
:1041500080E28093D90485ED8093BC008091BC00FF
:1041600084FDFCCFB7C080E38093D90485ED8093B4
:10417000BC008091BC0084FDFCCFACC088E3809380
:10418000D9049BC0809194049091BB00E82FF0E08B
:10419000EC58FB4F90838F5F80939404909194042C
:1041A0008091950482C0809194049091BB00E82F87
:1041B000F0E0EC58FB4F90838F5F809394048091E4
:1041C0006E04882341F085ED8093BC008091BC0093
:1041D00084FDFCCF7FC081E080936F0484EA6EC0D1
:1041E00085ED8093BC008091BC0084FDFCCF72C043
:1041F00083E080936C041092D80459C08091D80455
:10420000803208F056C08091D8049091BB00E82F0E
:10421000F0E0E854FB4F90838F5F8093D80447C051
:104220008091D804803230F4E091D804F0E0E85472
:10423000FB4F108285ED8093BC008091BC0084FD13
:10424000FCCF10926C046091D804E0917204F0915C
:10425000730488EB94E070E009951092D8042DC0A7
:1042600084E080936C041092B6041092B704E0913D
:104270007004F091710409958091B704882329F4A2
:1042800081E08093B704109296049091B604E92FD0
:10429000F0E0EA56FB4F80818093BB009F5F9093D4
:1042A000B6049091B6048091B704981710F485EC89
:1042B00001C085E88093BC000FC085EC8093BC00F2
:1042C00009C01092D90485ED8093BC008091BC0098
:1042D00084FDFCCF10926C04FF91EF91BF91AF91E0
:1042E0009F918F917F916F915F914F913F912F910E
:1042F0000F900FBE0F901F90189510926C0481E0E4
:1043000080936E0410926F0482E161E00E94AB24FE
:1043100083E161E00E94AB24E9EBF0E080818E7FD5
:10432000808380818D7F808388E48093B80085E4DA
:104330008093BC0008950F931F93CF93DF93BC012C
:104340008230910510F462E070E0E091A405F091F4
:10435000A505A0E0B0E040E050E024C0808191815C
:1043600086179707D0F08617970771F4828193819B
:10437000109729F013969C938E9312972CC09093CC
:10438000A5058093A40527C04115510519F0841790
:10439000950718F4EF018D01AC01DF018281938153
:1043A0009C01F9013097D1F641155105F9F0CA0188
:1043B000861B970B8430910580F48A819B810115BF
:1043C000110521F0F8019383828304C09093A50521
:1043D0008093A405FE01329645C0FE01E80FF91F47
:1043E000619371930297998388833CC08091A20561
:1043F0009091A305892B41F4809130019091310176
:104400009093A3058093A20540913201509133010E
:104410004115510541F44DB75EB780912E01909141
:104420002F01481B590B2091A2053091A305241799
:104430003507B0F4CA01821B930B8617970780F0EB
:10444000AB014E5F5F4F8417950750F0420F531F2B
:104450005093A3054093A205F9016193719302C0A3
:10446000E0E0F0E0CF01DF91CF911F910F9108952F
:10447000CF93DF939C01009709F48FC0EC01229742
:104480001B821A826091A4057091A50561157105C2
:1044900081F488819981820F931F2091A205309128
:1044A000A3052817390739F5D093A305C093A205B2
:1044B00074C0DB0140E050E0AC17BD0708F1BB83DE
:1044C000AA83FE0121913191E20FF31FAE17BF07BE
:1044D00079F48D919C911197280F391F2E5F3F4FD2
:1044E0003983288312968D919C9113979B838A839D
:1044F0004115510571F4D093A505C093A4054DC095
:1045000012968D919C911397AD01009711F0DC01EB
:10451000D3CFDA011396DC93CE931297FA0121914F
:104520003191E20FF31FCE17DF0769F4888199817B
:10453000280F391F2E5F3F4FFA01318320838A8174
:104540009B8193838283E0E0F0E0DB0112968D9102
:104550009C911397009719F0BC01FD01F6CFAB01B8
:104560004E5F5F4FDB018D919C91840F951F2091D1
:10457000A2053091A3052817390779F4309729F45B
:104580001092A5051092A40502C013821282425017
:1045900050405093A3054093A205DF91CF91089519
:1045A0001F920F920FB60F9211242F933F938F9368
:1045B0009F93AF93BF938091DE049091DF04A0910D
:1045C000E004B091E1043091E2040196A11DB11D17
:1045D000232F2D5F2D3720F02D570196A11DB11DE2
:1045E0002093E2048093DE049093DF04A093E00420
:1045F000B093E1048091DA049091DB04A091DC0493
:10460000B091DD040196A11DB11D8093DA04909351
:10461000DB04A093DC04B093DD04BF91AF919F91C4
:104620008F913F912F910F900FBE0F901F90189573
:104630008FB7F8942091DE043091DF044091E004BC
:104640005091E1048FBFB901CA0108959FB7F89452
:104650002091DA043091DB044091DC045091DD04B8
:1046600086B5A89B06C08F3F21F02F5F3F4F4F4F6D
:104670005F4F9FBF542F432F322F2227280F311D0A
:10468000411D511D82E0220F331F441F551F8A9583
:10469000D1F7B901CA0108959B01AC017FB7F89425
:1046A0008091DA049091DB04A091DC04B091DD04E8
:1046B00066B5A89B05C06F3F19F00196A11DB11DFD
:1046C0007FBFBA2FA92F982F8827860F911DA11D74
:1046D000B11D62E0880F991FAA1FBB1F6A95D1F711
:1046E000BC012DC0FFB7F8948091DA049091DB04EF
:1046F000A091DC04B091DD04E6B5A89B05C0EF3FB6
:1047000019F00196A11DB11DFFBFBA2FA92F982F37
:1047100088278E0F911DA11DB11DE2E0880F991F02
:10472000AA1FBB1FEA95D1F7861B970B885E9340A3
:10473000C8F2215030404040504068517C4F211514
:1047400031054105510571F60895019739F0880F3B
:10475000991F880F991F02970197F1F70895789490
:1047600084B5826084BD84B5816084BD85B5826076
:1047700085BD85B5816085BDEEE6F0E08081816014
:104780008083E1E8F0E01082808182608083808114
:1047900081608083E0E8F0E0808181608083E1EBEC
:1047A000F0E0808184608083E0EBF0E080818160D4
:1047B0008083EAE7F0E0808184608083808182608A
:1047C0008083808181608083808180688083109273
:1047D000C1000895982F8E3008F09E5097708091F8
:1047E00034018295880F880F807C892B80937C0010
:1047F00080917A00806480937A0080917A0086FDAF
:10480000FCCF2091780040917900942F80E030E037
:10481000282B392BC90108951F93CF93DF93182FAD
:10482000EB0161E00E946C24209709F44AC0CF3F5D
:10483000D10509F449C0E12FF0E0E35AFE4F84911D
:104840008330C1F0843028F4813051F08230B1F5EA
:104850000CC0863019F1873049F1843079F514C0E5
:1048600084B5806884BDC7BD33C084B5806284BD13
:10487000C8BD2EC080918000806880938000D09356
:104880008900C093880024C080918000806280935A
:104890008000D0938B00C0938A001AC08091B00032
:1048A00080688093B000C093B30012C08091B000C4
:1048B00080628093B000C093B4000AC0C038D105B4
:1048C0001CF4812F60E002C0812F61E00E94AB24C4
:1048D000DF91CF911F910895CF93DF93482F50E040
:1048E000CA01875B9E4FFC0134914B5C5E4FFA011D
:1048F0008491882369F190E0880F991FFC01E95E9B
:10490000FE4FA591B491FC01EF5DFE4FC591D4918E
:10491000662351F42FB7F8948C91932F90958923A7
:104920008C93888189230BC0623061F42FB7F8948F
:104930008C91932F909589238C938881832B8883E6
:104940002FBF06C09FB7F8948C91832B8C939FBF89
:10495000DF91CF910895482F50E0CA01835A9E4FAE
:10496000FC012491CA01875B9E4FFC0194914B5C32
:104970005E4FFA013491332309F440C0222351F1F0
:10498000233071F0243028F42130A1F0223011F5C9
:1049900014C02630B1F02730C1F02430D9F404C05F
:1049A000809180008F7703C0809180008F7D8093FD
:1049B000800010C084B58F7702C084B58F7D84BD20
:1049C00009C08091B0008F7703C08091B0008F7DC7
:1049D0008093B000E32FF0E0EE0FFF1FEF5DFE4F7E
:1049E000A591B4912FB7F894662321F48C919095FA
:1049F000892302C08C91892B8C932FBF0895682F37
:104A000070E0CB01835A9E4FFC012491CB01875B60
:104A10009E4FFC0144916B5C7E4FFB019491992366
:104A200019F420E030E03CC0222351F1233071F032
:104A3000243028F42130A1F0223011F514C02630A2
:104A4000B1F02730C1F02430D9F404C08091800047
:104A50008F7703C0809180008F7D8093800010C08D
:104A600084B58F7702C084B58F7D84BD09C08091E5
:104A7000B0008F7703C08091B0008F7D8093B0002D
:104A8000892F90E0880F991F855D9E4FFC01A591AD
:104A9000B4918C9120E030E0842311F021E030E0EB
:104AA000C90108958F929F92AF92BF92CF92DF92E9
:104AB000EF92FF920F931F93CF93DF93A82FB0E055
:104AC000CD01875B9E4FFC018490AB5CBE4FFD0126
:104AD0008491662311F4992401C0982C6FEFA62EBF
:104AE0006FEFB62E6FEFC62E6FE0D62EA222B32246
:104AF000C422D522682F70E0660F771F655D7E4F58
:104B0000EE24FF248701FB01A591B4910BC0EA14A8
:104B1000FB040C051D0509F44EC00894E11CF11CB2
:104B2000011D111D8C918821891589F30CC0EA148F
:104B3000FB040C051D0509F43EC00894E11CF11CA2
:104B4000011D111D03C0FB01A591B4918C91882119
:104B5000891569F720E030E040E050E0FB01C591A5
:104B6000D4910FC0DA01C9018E0D9F1DA01FB11F86
:104B70008A159B05AC05BD05F1F02F5F3F4F4F4FE8
:104B80005F4F88818821891569F3CA01B90125E140
:104B900030E040E050E00E9471319B01AC01205FA9
:104BA0003F4F4F4F5F4F84E0569547953795279578
:104BB0008A95D1F704C020E030E040E050E0B90130
:104BC000CA01DF91CF911F910F91FF90EF90DF907D
:104BD000CF90BF90AF909F908F90089508951F92AF
:104BE0000F920FB60F9211242F933F934F938F93F1
:104BF0009F93EF93FF938091C00082FD1DC0409171
:104C0000C60020912305309124052F5F3F4F2F735D
:104C1000307080912505909126052817390771F08D
:104C2000E0912305F0912405ED51FB4F4083309333
:104C300024052093230502C08091C600FF91EF91C7
:104C40009F918F914F913F912F910F900FBE0F9099
:104C50001F901895E0917705F0917805E05CFF4F83
:104C60008191919120813181805C9F4F821B930BB8
:104C700060E470E00E949C31892B11F00E94EE25C7
:104C800008951F920F920FB60F9211242F933F9306
:104C90008F939F93EF93FF93209167053091680561
:104CA0008091690590916A052817390731F4809140
:104CB000C1008F7D8093C10014C0E0916905F0911F
:104CC0006A05E95DFA4F20818091690590916A0536
:104CD00001968F73907090936A0580936905209375
:104CE000C600FF91EF919F918F913F912F910F906F
:104CF0000FBE0F901F901895AF92BF92DF92EF9268
:104D0000FF920F931F93CF93DF93EC017A018B01F6
:104D1000DD24403081EE580780E0680780E07807A6
:104D200011F0DD24D39491E0A92EB12CEC89FD89FA
:104D3000DD2069F0C50108A002C0880F991F0A9400
:104D4000E2F7808360E079E08DE390E005C01082B7
:104D500060E874E88EE190E0A80197010E94AF310D
:104D60002150304040405040569547953795279503
:104D700080E12030380720F0DD2011F0DD24D6CF8F
:104D8000E889F9893083EA89FB89208319A2EE89B1
:104D9000FF89408121E030E0C9010C8C02C0880FFE
:104DA000991F0A94E2F7482B4083EE89FF894081DE
:104DB000C9010D8C02C0880F991F0A94E2F7482B95
:104DC0004083EE89FF894081C9010E8C02C0880FA3
:104DD000991F0A94E2F7482B4083EE89FF8980816E
:104DE0000F8C02C0220F331F0A94E2F7209528236C
:104DF0002083DF91CF911F910F91FF90EF90DF9073
:104E0000BF90AF900895DC011C96ED91FC911D9729
:104E1000E05CFF4F8191919120813181805C9F4FB7
:104E2000821B930B60E470E00E949C310895DC01CA
:104E30001C96ED91FC911D97E05CFF4F2081318124
:104E4000E054F040DF01AE5BBF4F8D919C91119714
:104E50002817390719F42FEF3FEF07C08D919C9168
:104E6000E80FF91F8081282F30E0C9010895DC0187
:104E70001C96ED91FC911D97E05CFF4F20813181E4
:104E8000E054F040DF01AE5BBF4F8D919C911197D4
:104E90002817390719F42FEF3FEF10C08D919C911F
:104EA0001197E80FF91F20818D919C911197019620
:104EB0008F73907011969C938E9330E0C901089582
:104EC000DC0191968C919197882339F05496ED915D
:104ED000FC915597808186FFF9CF91961C92089599
:104EE000CF93DF93EC01EE85FF85E05CFF4F2081DF
:104EF0003181E054F0402F5F3F4F2F733070DF015E
:104F0000AE5BBF4F8D919C91119728173907D1F354
:104F1000E05CFF4F80819181E054F040E80FF91F81
:104F20006083EE85FF85E05CFF4F31832083EE894F
:104F3000FF89208181E090E00F8C02C0880F991FCB
:104F40000A94E2F7282B208381E089A3EC89FD896C
:104F500080818064808381E090E0DF91CF9108952B
:104F600010926E0510926D0588EE93E0A0E0B0E01F
:104F700080936F0590937005A0937105B0937205AF
:104F800083E791E090936C0580936B0583EE94E04A
:104F9000909378058093770587E295E090937A0562
:104FA0008093790585EC90E090937C0580937B0558
:104FB00084EC90E090937E0580937D0580EC90E0FA
:104FC0009093800580937F0581EC90E0909382051B
:104FD0008093810582EC90E0909384058093830513
:104FE00086EC90E0909386058093850584E080931D
:104FF000870583E08093880587E08093890585E0B5
:1050000080938A0581E080938B0508950895CF935E
:10501000DF930E94AF230E9406280E947408CAE210
:10502000D6E20E94E3072097E1F30E942A26F9CFF7
:10503000CF92DF92EF92FF920F931F93CF93DF9364
:105040007C016B018A01C0E0D0E00FC0D6016D91F8
:105050006D01D701ED91FC910190F081E02DC70128
:105060000995C80FD91F015010400115110571F79E
:10507000CE01DF91CF911F910F91FF90EF90DF90C4
:10508000CF900895EF92FF920F931F938C01DC0154
:10509000ED91FC910190F081E02D6DE009957C018E
:1050A000D801ED91FC910190F081E02DC8016AE0FA
:1050B00009959C012E0D3F1DC9011F910F91FF9075
:1050C000EF900895813041F0813018F08230D1F4B2
:1050D00009C010926E00089580916F008D7F8093BB
:1050E0006F000895809170008D7F8093700081E043
:1050F0008093B0008091B100887F84608093B1007C
:105100001092B30008951F93182F809135018117D5
:1051100011F09FEF06C0E1E7F1E094918FEF8093EB
:105120003501892F0E946228812F60E00E94AB2404
:105130001F9108951F920F920FB60F9211242F9373
:105140003F934F935F936F937F938F939F93AF930F
:10515000BF93EF93FF9380919B0590919C05A09145
:105160009D05B0919E050097A105B10551F1E09113
:105170009F05F091A00580819091A10589278083EA
:1051800080919B0590919C05A0919D05B0919E05F5
:10519000181619061A061B06C4F480919B059091F7
:1051A0009C05A0919D05B0919E050197A109B109AB
:1051B00080939B0590939C05A0939D05B0939E05BD
:1051C00004C0809135010E948328FF91EF91BF9127
:1051D000AF919F918F917F916F915F914F913F918F
:1051E0002F910F900FBE0F901F9018952F923F9206
:1051F0005F926F927F928F929F92AF92BF92CF9267
:10520000DF92EF92FF920F931F93DF93CF9300D023
:1052100000D0CDB7DEB7A82F1B0129833A834B837B
:105220005C83809135018A1721F4E1E7F1E0549025
:1052300082C08F3F09F0DAC1A0933501E1E7F1E0C8
:1052400054902FEF521609F4D1C181E0581639F16C
:1052500092E0591609F449C0552009F06CC014BCFD
:1052600015BC84B5826084BD85B5816085BD2A2F5B
:1052700030E0F901EB5CFE4FE491F0E0EE0FFF1F30
:10528000EF5DFE4F859194919093920580939105E7
:10529000275B3E4FF9018491809393054EC0109295
:1052A000800010928100809181008860809381004D
:1052B000809181008160809381002A2F30E0F90184
:1052C000EB5CFE4FE491F0E0EE0FFF1FEF5DFE4F51
:1052D000859194919093990580939805275B3E4F13
:1052E000F901849180939A0528C01092B000109221
:1052F000B1008091B00082608093B0008091B100D5
:1053000081608093B1002A2F30E0F901EB5CFE4F01
:10531000E491F0E0EE0FFF1FEF5DFE4F8591949159
:105320009093A00580939F05275B3E4FF9018491E0
:105330008093A10502C057FC59C18A2F61E00E94E9
:105340006C24552021F0F2E05F1609F0BEC0310157
:105350008824992460E072E18AE790E0A401930137
:105360000E94D13159016A01860175010894E10852
:10537000F108010911092FEFE216F10401051105E9
:1053800009F008F499C060E472E48FE090E0A401B1
:1053900093010E94D13179018A010894E108F10852
:1053A0000109110982E05816C1F49FEFE916F104D2
:1053B0000105110509F008F484C060E970ED83E08F
:1053C00090E0A40193010E94D13179018A010894EF
:1053D000E108F1080109110983E0AFEFEA16F104D1
:1053E0000105110509F008F468C068E478EE81E071
:1053F00090E0A40193010E94D13179018A010894BF
:10540000E108F10801091109552011F483E01DC0DC
:10541000B2E05B1611F084E018C0EFEFEE16F10475
:105420000105110509F008F4DFC064E274EF80E0C3
:1054300090E0A40193010E94D13179018A0108947E
:10544000E108F1080109110985E0FFEFEF16F10409
:105450000105110591F188F162E17AE780E090E0C1
:10546000A40193010E94D13179018A010894E108D5
:10547000F10801091109552011F086E001C084E00E
:105480002FEFE216F10401051105B9F0B0F0C601E5
:10549000B50120E034E040E050E00E94D1317901D4
:1054A0008A010894E108F10801091109552011F059
:1054B00087E008C085E003C081E0552019F485BD70
:1054C0003AC082E08093B10036C05101CC24DD2483
:1054D00060E072E18AE790E0A60195010E94D13177
:1054E00079018A010894E108F1080109110980E0B5
:1054F000E81680E0F80681E0080780E0180710F45D
:1055000091E010C068E478EE81E090E0A60195019A
:105510000E94D13179018A010894E108F10801095A
:10552000110993E0A1E05A1631F480918100887F3F
:10553000982B9093810089819A81AB81BC810097DF
:10554000A105B10529F48FEF9FEFAFEFBFEF13C0B7
:10555000220C331CB10180E090E029813A814B811B
:105560005C810E94713128EE33E040E050E00E94FF
:10557000AF31C901DA01E1E05E16A1F0F2E05F1699
:1055800019F1552099F5E7BC80938D0590938E0510
:10559000A0938F05B093900580916E0082608093F8
:1055A0006E0024C0F0928900E092880080939405F8
:1055B00090939505A0939605B093970580916F0001
:1055C000826080936F0012C0E092B30080939B05CD
:1055D00090939C05A0939D05B0939E0580917000CB
:1055E00082608093700002C084E06CCF0F900F90B7
:1055F0000F900F90CF91DF911F910F91FF90EF903F
:10560000DF90CF90BF90AF909F908F907F906F90E2
:105610005F903F902F9008952F923F924F925F920C
:105620006F927F928F929F92AF92BF92CF92DF92B2
:10563000EF92FF920F931F93DF93CF93CDB7DEB717
:105640003B014C0119012A016D897E898F89988D52
:105650006A197B098C099D09621A730A840A950AE2
:10566000A40193010E947131E218F308040915099D
:10567000A80197010E94D1312A0D3B1D4C1D5D1DD3
:10568000B901CA01CF91DF911F910F91FF90EF9067
:10569000DF90CF90BF90AF909F908F907F906F9052
:1056A0005F904F903F902F900895FC0184819581E9
:1056B0006817790748F40190F081E02D309721F0C8
:1056C000E60FF71F8081089580E008950F931F93E0
:1056D000CF93DF93EC018B016F5F7F4F88819981BE
:1056E0000E940F2C009711F480E005C099838883F5
:1056F0001B830A8381E0DF91CF911F910F91089561
:10570000CF93DF93EC0188819981892B29F08A81DD
:105710009B818617970760F4CE010E94662B882331
:1057200041F08C819D81892B19F4E881F9811082E7
:1057300081E0DF91CF910895CF93DF93EC018881D1
:105740009981009711F00E943822198218821D82D7
:105750001C821B821A82DF91CF910895EF92FF92F3
:105760000F931F93CF93DF93EC017B018A01BA0162
:105770000E94802B882321F4CE010E949C2B07C01D
:105780001D830C8388819981B7010E94F200CE01AC
:10579000DF91CF911F910F91FF90EF900895CF93DC
:1057A000DF93EC01198218821B821A821D821C82EF
:1057B0006115710551F0DB010D900020E9F711979B
:1057C000A61BB70BAD010E94AE2BDF91CF910895C0
:1057D000CF93DF93EC01FB018617970761F060819F
:1057E00071816115710529F0448155810E94AE2BAC
:1057F00002C00E949C2BCE01DF91CF910895FC0145
:105800001182108213821282158214820E94E82B68
:105810000895FC01808191810E94382208956F9241
:105820007F928F929F92AF92BF92CF92DF92EF9230
:10583000FF920F931F93CF93DF938C01009729F46E
:10584000CB010E949B218C01BBC08EEFE82E8FEF15
:10585000F82EE00EF11E4801860E971E8E149F044E
:1058600008F4ACC0D7014D915C91119746175707CA
:10587000B8F04530510508F4A3C0CA010497861753
:10588000970708F49DC042505040461B570BF40147
:10589000419351936D937C93CF010E94382290C025
:1058A0005B01A41AB50A3801640E751EA091A40507
:1058B000B091A505CC24DD24E0E0F0E047C0A615BA
:1058C000B705A9F5CD91DC911197CE0102968A1505
:1058D0009B0568F1CE018A199B09029612962C91BC
:1058E000129713963C91059758F0F4012283338365
:1058F000CA19DB09D183C083D7016D937C9309C09A
:105900004E5F5F4F4C0F5D1FF70151834083C9010C
:10591000FC01C114D10431F0D6011396FC93EE932F
:1059200012974EC0F093A505E093A40549C08D9150
:105930009C911197E817F90708F4FC016D01129684
:105940008C91129713969C919C01D901109709F0A4
:10595000B6CF8091A2059091A30586159705E9F42D
:10596000E617F707D0F42091320130913301211569
:10597000310541F42DB73EB780912E0190912F0152
:10598000281B390B82169306C8F49092A3058092C7
:10599000A205F7017183608313C0CB010E949B2194
:1059A000EC01009759F0D7014D915C91B8010E942C
:1059B000E900C8010E9438228E0102C000E010E018
:1059C000C801DF91CF911F910F91FF90EF90DF9071
:1059D000CF90BF90AF909F908F907F906F900895E1
:1059E0005058BB27AA270ED03AC22BD230F030D263
:1059F00020F031F49F3F11F41EF4FBC10EF4E0954A
:105A0000E7FBC6C1E92F3CD280F3BA1762077307E0
:105A10008407950718F071F49EF56BC20EF4E095BB
:105A20000B2EBA2FA02D0B01B90190010C01CA0158
:105A3000A0011124FF27591B99F0593F50F4503E03
:105A400068F11A16F040A22F232F342F4427585FF5
:105A5000F3CF469537952795A795F0405395C9F70D
:105A60007EF41F16BA0B620B730B840BBAF09150C5
:105A7000A1F0FF0FBB1F661F771F881FC2F70EC064
:105A8000BA0F621F731F841F48F487957795679537
:105A9000B795F7959E3F08F0B3CF9395880F08F020
:105AA0009927EE0F979587950895CBD158F080E808
:105AB00091E009F49EEFCCD128F040E851E059F490
:105AC0005EEF09C096C115C2E92FE078D9D168F31D
:105AD000092E052AC1F3261737074807590738F05A
